:100000000C9462000C948A000C948A000C948A0070
:100010000C948A000C948A000C948A000C9491022F
:100020000C948A000C948A000C948A000C948A0028
:100030000C948A000C948A000C948A000C948A0018
:100040000C94EF010C948A000C945F020C9439021A
:100050000C948A000C948A000C948A000C948A00F8
:100060000C948A000C948A00000000080002010031
:100070000003040700000000000000000000000072
:10008000240027002A000000000023002600290089
:1000900000000000250028002B00040404040404D0
:1000A0000404020202020202030303030303010227
:1000B00004081020408001020408102001020408F6
:1000C0001020B60211241FBECFEFD8E0DEBFCDBF97
:1000D00011E0A0E0B1E0EEE5F8E002C005900D927D
:1000E000A231B107D9F721E0A2E1B1E001C01D9230
:1000F000AE3CB207E1F710E0C2E6D0E004C02197C1
:10010000FE010E942704C136D107C9F70E942303CC
:100110000C942D040C940000CF93DF9390E0FC012D
:10012000E255FF4F249186569F4FFC01849188230E
:10013000D1F090E0880F991FFC01E458FF4FA59182
:10014000B491FC01E057FF4FC591D49161110EC0ED
:100150009FB7F8948C91E22FE0958E238C932881A1
:10016000E223E8839FBFDF91CF9108958FB7F89482
:10017000EC91E22BEC938FBFF6CF3FB7F8948091D0
:100180001B0190911C01A0911D01B0911E0126B58B
:10019000A89B05C02F3F19F00196A11DB11D3FBFBF
:1001A000BA2FA92F982F8827BC01CD01620F711D8E
:1001B000811D911D42E0660F771F881F991F4A9588
:1001C000D1F70895AF92BF92CF92DF92EF92FF9254
:1001D0000F931F93CF93DF936C017B018B01040F6F
:1001E000151FEB015E01AE18BF08C017D10759F00B
:1001F0006991D601ED91FC910190F081E02DC6014D
:100200000995892B79F7C501DF91CF911F910F9146
:10021000FF90EF90DF90CF90BF90AF900895FC01DA
:10022000538D448D252F30E0842F90E0821B930B5B
:10023000541710F0CF96089501970895FC01918D01
:10024000828D981761F0A28DAE0FBF2FB11D5D9604
:100250008C91928D9F5F9F73928F90E008958FEFA6
:100260009FEF0895FC01918D828D981731F0828D5A
:10027000E80FF11D858D90E008958FEF9FEF0895B1
:10028000FC01918D228D892F90E0805C9F4F821B15
:1002900091098F73992708958FE191E00E944001A1
:1002A00021E0892B09F420E0822F089580E090E07E
:1002B000892B29F00E944C0181110C9400000895B3
:1002C000FC01A48DA80FB92FB11DA35ABF4F2C91CB
:1002D000848D90E001968F739927848FA689B789C2
:1002E0002C93A089B1898C91837080648C93938DB9
:1002F000848D981306C00288F389E02D80818F7D5C
:1003000080830895EF92FF920F931F93CF93DF9313
:10031000EC0181E0888F9B8D8C8D98131AC0E88941
:10032000F989808185FF15C09FB7F894EE89FF8910
:100330006083E889F98980818370806480839FBFAE
:1003400081E090E0DF91CF911F910F91FF90EF90AE
:100350000895F62E0B8D10E00F5F1F4F0F731127BE
:10036000E02E8C8D8E110CC00FB607FCFACFE889F9
:10037000F989808185FFF5CFCE010E946001F1CF20
:10038000EB8DEC0FFD2FF11DE35AFF4FF0829FB76D
:10039000F8940B8FEA89FB8980818062CFCFCF935D
:1003A000DF93EC01888D8823B9F0AA89BB89E8899D
:1003B000F9898C9185FD03C0808186FD0DC00FB643
:1003C00007FCF7CF8C9185FFF2CF808185FFEDCFC1
:1003D000CE010E946001E9CFDF91CF9108951F9275
:1003E0000F920FB60F9211242F933F938F939F93E9
:1003F000AF93BF938091170190911801A0911901BB
:10040000B0911A013091160123E0230F2D3758F5D2
:100410000196A11DB11D20931601809317019093A1
:100420001801A0931901B0931A0180911B019091BA
:100430001C01A0911D01B0911E010196A11DB11DCD
:1004400080931B0190931C01A0931D01B0931E018A
:10045000BF91AF919F918F913F912F910F900FBEC0
:100460000F901F90189526E8230F0296A11DB11D2D
:10047000D2CF1F920F920FB60F9211242F933F935A
:100480004F935F936F937F938F939F93AF93BF939C
:10049000EF93FF938FE191E00E946001FF91EF9154
:1004A000BF91AF919F918F917F916F915F914F918C
:1004B0003F912F910F900FBE0F901F9018951F9294
:1004C0000F920FB60F9211242F938F939F93EF9358
:1004D000FF93E0912F01F09130018081E09135018F
:1004E000F091360182FD1BC09081809138018F5FB1
:1004F0008F7320913901821741F0E0913801F0E0CB
:10050000E15EFE4F958F80933801FF91EF919F91AF
:100510008F912F910F900FBE0F901F901895808193
:10052000F4CF1F920F920FB60F9211242F933F9387
:100530004F935F936F937F938F939F93AF93BF93EB
:10054000EF93FF93F0E0E0E00995FF91EF91BF9109
:10055000AF919F918F917F916F915F914F913F915B
:100560002F910F900FBE0F901F901895EFE1F1E0C3
:100570001382128288EE93E0A0E0B0E0848395833A
:10058000A683B78384E091E09183808385EC90E03B
:100590009587848784EC90E09787868780EC90E04D
:1005A000918B808B81EC90E0938B828B82EC90E03E
:1005B000958B848B86EC90E0978B868B118E128EB8
:1005C000138E148EEAEBF0E0E491ACEBB1E01496FC
:1005D000EC931497E9EBF0E0E4911596EC93159702
:1005E00086EA90E0FC012491E22FF0E0EE0FFF1F7D
:1005F000E057FF4F2591349117963C932E93169711
:10060000E5EAF0E0E491F0E0EE0FFF1FEA57FF4F5C
:100610002591349119963C932E931897FC0184915F
:10062000E82FF0E0EE0FFF1FE458FF4F8591949103
:100630001B969C938E931A9781EC9CE21D969C933B
:100640008E931C970895789484B5826084BD84B598
:10065000816084BD85B5826085BD85B5816085BDBD
:1006600080916E00816080936E0010928100809175
:1006700081008260809381008091810081608093FD
:100680008100809180008160809380008091B10022
:1006900084608093B1008091B00081608093B0004D
:1006A00080917A00846080937A0080917A008260E1
:1006B00080937A0080917A00816080937A008091A3
:1006C0007A00806880937A001092C100E0912F0137
:1006D000F091300182E08083E0912B01F0912C01B8
:1006E0001082E0912D01F0912E018FEC8083109209
:1006F0003701E0913301F091340186E08083E0918D
:100700003101F0913201808180618083E09131017B
:10071000F0913201808188608083E0913101F09115
:100720003201808180688083E0913101F091320153
:1007300080818F7D808360E08CE00E948C0061E08E
:100740008BE00E948C0061E089E00E948C0060E0F8
:1007500085E00E948C0021E7822E20E0922EC7EBDC
:10076000D0E003EA10E030E0A32E30E0B32E0E9488
:10077000BD002B013C0196E9C92ED12CE12CF12CB6
:100780000E94BD006419750986099709683E734087
:1007900081059105A8F321E0C21AD108E108F1080A
:1007A00088EE480E83E0581E611C711CC114D104F0
:1007B000E104F10429F7F4018491FE019491F80118
:1007C00024912223B9F0882339F0833049F1F0F4E1
:1007D000813061F1823071F1E22FF0E0EE0FFF1F06
:1007E000E057FF4FA591B4918FB7F8942C91922BBD
:1007F0009C938FBFA114B10409F4B9CF0E944C019E
:10080000882309F4B4CF0E940000B1CF8730A9F04B
:100810008830C9F0843001F7809180008F7D03C05B
:10082000809180008F7780938000D6CF84B58F77BA
:1008300084BDD2CF84B58F7DFBCF8091B0008F7700
:100840008093B000C9CF8091B0008F7DF9CFEE0FBB
:0E085000FF1F0590F491E02D0994F894FFCF5E
:10085E00000000008201E2000F01CF0140011E01E5
:02086E00320155
:00000001FF
